S018000030385F4578745F496E746572727570742E73726563E8
S113000070240020BD010000B9010000B901000006
S113001000000000000000000000000000000000DC
S1130020000000000000000000000000B901000012
S11300300000000000000000B9010000B901000048
S1130040B9010000B9010000B9010000B9010000C4
S11300501D030000B9010000B9010000B90100004E
S1130060B9010000B9010000B9010000B9010000A4
S1130070B9010000B9010000B9010000B901000094
S1130080B9010000B9010000B9010000B901000084
S1130090B9010000B9010000B9010000B901000074
S11300A0B9010000B9010000B9010000B901000064
S11300B00000000010B5064C2378002B07D1054B37
S11300C0002B02D0044800E000BF0123237010BDC0
S11300D02C0400200000000024050000084B10B58B
S11300E0002B03D00749084800E000BF0748036815
S11300F0002B00D110BD064B002BFBD09847F9E72D
S11301000000000030040020240500002405000045
S11301100000000010B5044B984780239B02034A5B
S11301201360034A136010BD350100000044004110
S113013014440041174B1A6A17490A401A621A6A92
S113014002210A431A62154B00229A605A68144924
S11301501140C022D2000A435A605A6811490A4029
S11301605A605A680F218A435A60596880225202A1
S11301700A435A605A883F218A4305210A435A8018
S11301805A8809490A405A8059888022D2010A4370
S11301905A80704700080040FFFCFFFF000C00403D
S11301A0FFE0FFFFFFFFEFFFFFF0FFFFBFF35F8FF5
S11301B001380028FAD17047FEE70000F8B52A4A52
S11301C02A4B9A4211D01A00294B9A420DD2294A3D
S11301D003339B1A9B0801339B00002223482249C6
S11301E08C58845004329A42FAD1234A234B9A42BF
S11301F00AD2D34321495B1803218B4304339B1850
S1130200002102C29342FCD11D4AFF211D4B8B43A6
S11302109360FD3990235B001B4AD1501B4AD3786D
S11302200325AB4302242343D370D3780C27BB4369
S113023008263343D370164B987B302290432022F8
S113024010439873997BB943314399739A7BAA43BA
S113025022439A730F4A536880210B4353600E4B19
S113026098470E4B9847FEE7240500000000002045
S11302702C040020040000202C0400206C04002026
S113028000ED00E00000000000700041005000415B
S113029000480041004000415D030000A10200004D
S11302A010B5194B9847194B51215A5C4020024311
S11302B05A540A395A5C012002435A541439585C7E
S11302C00F2202405A541022114B1A60114B9969A3
S11302D0802212060A439A619A690F4911408022CA
S11302E092050A439A61DA6880210A43DA601A782F
S11302F002210A431A701A001378DB0703D55378D6
S1130300DB09012BF8D0FEE7150100000044004191
S113031000E100E000180040FFFFFF8F10B50A4B1A
S11303201B691B0600D410BD8024A402074B1C606B
S11303300748084B9847084B1C60034A13698021FF
S11303400B431361EFE7C046001800401844004116
S113035093760A00AD0100001444004170B50D4EBF
S11303600D4D0024AD1BAD1005D0A300F35801348E
S11303709847A542F9D100F0C3F8084E084D00246F
S1130380AD1BAD1005D0A300F35801349847A54226
S1130390F9D170BD0C0500000C0500000C0500002F
S11303A014050000034B10B5002B02D0024800F0E6
S11303B005F810BD00000000CD03000010B50100D9
S11303C000230022002000F01FF810BD70B5094B77
S11303D0094CE41AA41009D0084AA518AD00ED1878
S11303E02B68013C9847043D002CF9D100F092F8A9
S11303F070BDC0462005000024050000FFFFFF3F3C
S11304007047C0467047C046F0B54E464546DE4686
S11304105746E0B5364D83B00600286898460F006D
S11304209146FFF7EDFF334B1C68A4235B00E058B3
S1130430002852D043681F2B13DC5A1C0192002E53
S113044028D1019A02339B0042601F502868FFF7AD
S1130450D9FF002003B03CBC90469946A246AB4667
S1130460F0BD254B002B3DD0C820400000E000BF6C
S1130470002837D0A42200235200A1584360016011
S1130480A05040328350043283500133019300233F
S1130490002ED6D09A00924682444A468821544679
S11304A06250C4225200914681444A468739994099
S11304B012688B460A4394464A4661461160842278
S11304C041465200A150022EBBD102005C468D323F
S11304D0FF3211680C431460B3E720004D30FF3045
S11304E0E050A7E72868FFF78DFF01204042B1E7FD
S11304F028040020FC04000000000000000000208C
S1130500F8B5C046F8BC08BC9E467047A503000079
S1130510DD000000F8B5C046F8BC08BC9E46704734
S1070520B50000001E
S113052400000000EC02002054030020BC0300205F
S113053400000000000000000000000000000000B3
S113054400000000000000000000000000000000A3
S11305540000000000000000000000000000000093
S11305640000000000000000000000000000000083
S11305740000000000000000000000000000000073
S11305840000000000000000000000000000000063
S11305940000000000000000000000000000000053
S11305A40000000000000000000000000000000043
S11305B40000000000000000000000000000000033
S11305C40000000000000000010000000000000022
S11305D40E33CDAB34126DE6ECDE05000B000000E7
S11305E40000000000000000000000000000000003
S11305F400000000000000000000000000000000F3
S113060400000000000000000000000000000000E2
S113061400000000000000000000000000000000D2
S10F094400000000000000004804002037
S9030000FC
